:020000040800F2
:10000000580B0020CD0800086105000863050008B2
:10001000670500086B0500086F0500080000000078
:100020000000000000000000000000007305000850
:100030007505000800000000770500087905000834
:10004000E7080008E7080008E7080008E7080008D4
:10005000E7080008E7080008E7080008E7080008C4
:10006000E7080008E7080008E7080008E7080008B4
:10007000E7080008E7080008E7080008E7080008A4
:10008000E7080008E7080008E7080008E708000894
:10009000E7080008E7080008E7080008E708000884
:1000A000E7080008E7080008E7080008E708000874
:1000B000FD250008E7080008E7080008E708000831
:1000C000E7080008E7080008E7080008E708000854
:1000D000E7080008FD240008E7080008E708000812
:1000E000E7080008E7080008E7080008E708000834
:1000F000E7080008E7080008E7080008E708000824
:10010000E7080008E7080008E7080008E708000813
:10011000E7080008E7080008E7080008E708000803
:10012000E7080008E7080008E7080008E7080008F3
:1001300000F002F800F03AF80AA090E8000C8244BF
:100140008344AAF10107DA4501D100F02FF8AFF29C
:10015000090EBAE80F0013F0010F18BFFB1A43F0A5
:1001600001031847504A0000704A0000103A24BFAB
:1001700078C878C1FAD8520724BF30C830C144BF0C
:1001800004680C607047000000230024002500264E
:10019000103A28BF78C1FBD8520728BF30C148BFEA
:1001A0000B6070471FB51FBD10B510BD03F0ABF954
:1001B0001146FFF7F7FF00F0AEF803F0C9F903B4FA
:1001C000FFF7F2FF03BC03F0CDF900002DE9F84F73
:1001D000C1480179C07801EB0024BF48817840789C
:1001E00001EB0029BDA20021282002F044FC0A20D6
:1001F00099FBF0F100FB119599FBF0F602202B46DC
:10020000324600210090282002F05FFDB5490978B0
:100210000831C8B2B4A2002102F02DFCAFA2022125
:10022000182002F028FC0A2094FBF0F100FB114595
:1002300094FBF0F602202B4632460146009018202F
:1002400002F043FDA74909780831C8B2A8A20221EB
:1002500002F011FCA7A20421382002F00CFC9E49F8
:10026000497A9D4A127A01EB022003F0A5FB8346EE
:1002700003F076FB07464FF03332A04B03F096F9BC
:10028000054603F0EBFA1FFA80FA022352460421D6
:10029000382002F0EFFC934909780831C8B298A2DF
:1002A000042102F0E8FB97A20621182002F0E3FBEC
:1002B0000223974806210268182002F0DBFC8949D6
:1002C00009780831C8B293A2062102F0D4FBBDE838
:1002D000F88F08B5684602F0BEFD9DF800007E4923
:1002E000C8709DF80100087108BD10B58AA20021F0
:1002F000084602F0C0FB8BA20221002002F0BBFBEB
:100300008AA20421002002F0B6FB8BA20621002065
:1003100002F0B1FB10BD08B500F09FF902F060F8E3
:1003200001F0F4FF4FF4165002F060F8032002F0E1
:1003300027F902F089F90021642002F066FA02F040
:10034000BBFD02F065FF02F0DEFFFFF7CEFFC1E06C
:100350007B480078012807D17A48007820B900F05E
:100360007DFA012077490870774801680068401CD1
:10037000754A1060642904DB02F07EF9002072499E
:1003800008607248007878B9714801680068401CBC
:100390006F4A1060642907DB00201146086002F0F4
:1003A000EBFF01206949087068480078012821D1D5
:1003B000674801680068401C654A1060052919DB20
:1003C00000201146086002F0DDFF02F0E2FF02F0BB
:1003D000FBFF0446FF2094FBF0F03F494870FF20EC
:1003E00094FBF0F100FB11403B4988700220574913
:1003F000087000BF5548007802282FD15448016882
:100400000068401C524A1060052927DB0020114675
:10041000086002F0C4FF02F0F3FF3D49086008469F
:1004200000684FF6FF71B0FBF1F02B494871384876
:100430000068FF21B0FBF1F0B0FBF1F201FB12000C
:100440002549887132480068FF21B0FBF1F201FBB9
:1004500012002149C87100203C4908703D480078CD
:1004600078B93D4801680068401C3B4A1060322959
:1004700007DB02F0D9FE012036490870002036491A
:10048000086034480078012812D1334801680068B8
:10049000401C314A106012290ADB684602F0A4FEB3
:1004A0009DF800000C4908729DF80100487200BFD9
:1004B0002A4801680068401C284A1060412906DB70
:1004C000002011460860FFF704FFFFF77FFE0A20B7
:1004D00001F059FF3CE700002C00002020202020E4
:1004E0002000000054000020442E432E0000000095
:1004F0002500000020202020202020003333F33F5F
:100500004C78000020202020202020200000000027
:10051000140000205061000054656D703A4E2F4168
:100520000000000048723A4E2F4100004272696795
:1005300068743A4E2F41000041503A4E2F4100005E
:100540005000002036000020000000201100002094
:100550000C000020100000200800002004000020F3
:10056000704700BFFEE700BFFEE700BFFEE700BF29
:10057000FEE7704770477047704700000CB50020D9
:10058000019000906C48006840F480306A4908602F
:1005900000BF6948006800F4003000900198401CDA
:1005A0000190009818B90198B0F5A06FF1D1624898
:1005B000006800F4003010B10120009001E000203C
:1005C00000900098012843D15C48006840F010007A
:1005D0005A4908600846006820F003000860084691
:1005E000006840F002000860534840685249486083
:1005F0000846406848600846406840F480604860AB
:100600000846406820F47C1048600846406840F482
:10061000E81048600846006840F08070086000BF3D
:100620004548006800F000700028F9D04248406852
:1006300020F00300404948600846406840F002004E
:10064000486000BF3C48406800F00C000828F9D121
:100650000CBD10B5FFF792FF10BD10B5364800680D
:1006600040F00100344908600846406834490840B9
:100670003149486008460068324908402E49086000
:100680000846006820F4802008600846406820F48E
:10069000FE0048604FF41F008860FFF7DAFF4FF05C
:1006A00000602949086010BD10B50021002000221B
:1006B000214B5B6803F00C0121B1042906D0082905
:1006C00028D107E0214B224C236027E01F4B204C10
:1006D000236023E0184B5B6803F47010164B5B68D3
:1006E00003F48032022303EB904022B9194B4343B9
:1006F000174C23600DE0104B5B6803F4003323B10B
:10070000144B4343124C236003E0104B4343104C03
:10071000236003E00D4B0E4C236000BF00BF064B6F
:100720005B68C3F303130C4CE15C094B1B68CB40C3
:10073000074C236010BD0000001002400020024062
:100740000000FFF8FFFFF6FE08ED00E000127A005F
:100750001800002000093D001C00002070B5024672
:100760000C46FF25FF2309E012F8010B80EA030184
:100770004F48405C80EA05034E48455C2000A4F1E8
:100780000106B4B2F0D143EA052070BD10B54A4865
:100790000078401E4949095C47480078801E474A56
:1007A000105C41EA002444480078801E81B2104663
:1007B000FFF7D4FFA04201D1012010BD0020FCE7CB
:1007C0002DE9F04105468846144605203C4908704D
:1007D000002048703B4800788870084680F8038005
:1007E0000471002606E02978701D354A11546D1CED
:1007F000701CC6B2A642F6DB611D3148FFF7AEFFA2
:100800000746390A2E4A601D1154A01D1754E01DD9
:10081000C1B2104601F063FEBDE8F08138B527484B
:100820004479857928A00068009026480555012262
:1008300004216846FFF7C4FF38BD3EB5002405E03B
:100840002048005D0DF80400601CC4B20A2CF7DBE0
:100850000A2202216846FFF7B3FF3EBD10B51648D5
:100860000078072800DA10BD144880781549097807
:10087000884200D0F7E7FFF789FF00B9F3E70F4898
:100880000078052811D10D48C078022804D003282B
:1008900005D0042807D103E0FFF7CFFF04E003E011
:1008A000FFF7BCFF00E000BF00BF00BFDBE70000B8
:1008B0009A3A00089A3B000852000020600000208D
:1008C0009C0000202C000020010000000948804707
:1008D00009480047FEE7FEE7FEE7FEE7FEE7FEE722
:1008E000FEE7FEE7FEE7FEE704480549054A064B3A
:1008F000704700005B060008310100085805002021
:10090000580B0020580700205807002031490143A8
:10091000314A1160704770B5002100230F22C4785E
:1009200004B32D4C246804F4E064C4F5E064210AA7
:10093000C1F10403CA40447804FA03F184781440F6
:1009400021430901254C0678A155047804F01F05C0
:100950000124AC4005786D11AD0005F1E025C5F826
:10096000004109E0047804F01F050124AC401C4D4F
:100970000678761145F8264070BD1A4A0A400243AF
:10098000154B1B1F1A60704739B1134A121D1268AC
:100990000243114B1B1D1A6006E00F4A121D12681C
:1009A00082430D4B1B1D1A607047042808D14FF07D
:1009B000E021096941F004014FF0E022116107E0F4
:1009C0004FF0E021096921F004014FF0E0221161AC
:1009D000704700000000FA050CED00E000E400E0C4
:1009E00080E100E080FFFF1F10B50446CC48844240
:1009F00008D10121042000F02DFB0021042000F08B
:100A000029FB46E0C748844208D10121082000F0B4
:100A100021FB0021082000F01DFB3AE0C24884427F
:100A200008D10121102000F015FB0021102000F05A
:100A300011FB2EE0BD48844208D10121202000F0A6
:100A400009FB0021202000F005FB22E0B848844289
:100A500008D10121402000F0FDFA0021402000F0E3
:100A6000F9FA16E0B348844208D10121802000F051
:100A7000F1FA0021802000F0EDFA0AE0AE4884424D
:100A800007D10121801500F0E5FA0021A01500F042
:100A9000E1FA10BD10B50121084600F0DBFA002193
:100AA000012000F0D7FA10BD2DE9F04102460025E3
:100AB0000026002000230024002791F803C00CF03A
:100AC0000F0591F803C00CF0100CBCF1000F03D01F
:100AD00091F802C04CEA050591F800C0BCF1000F86
:100AE00031D0146800202BE04FF0010C0CFA00F319
:100AF000B1F800C00CEA03069E4220D183004FF0FB
:100B00000F0C0CFA03F7BC4305FA03FC4CEA04048F
:100B100091F803C0BCF1280F06D14FF0010C0CFA7C
:100B200000FCC2F814C00AE091F803C0BCF1480F01
:100B300005D14FF0010C0CFA00FCC2F810C0401CAB
:100B40000828D1D31460B1F800C0BCF1FF0F34DD28
:100B5000546800202EE000F1080C4FF0010808FA5C
:100B60000CF3B1F800C00CEA03069E4221D18300C9
:100B70004FF00F0C0CFA03F7BC4305FA03FC4CEAE8
:100B8000040491F803C0BCF1280F05D100F1080C52
:100B900008FA0CF8C2F8148091F803C0BCF1480FB1
:100BA00007D100F1080C4FF0010808FA0CF8C2F860
:100BB0001080401C0828CED35460BDE8F0814FF669
:100BC000FF710180022181700421C17070470246CB
:100BD000002093680B400BB1012000E0002070471B
:100BE0000146886880B2704702460020D3680B40F7
:100BF0000BB1012000E0002070470146C86880B2B8
:100C0000704701617047416170470AB1016100E0BE
:100C100041617047C16070474FF480320A4382617E
:100C20008161826182698269704702460020434B7C
:100C300018684FF68073184040EA021008433F4B93
:100C4000186070473E49C8617047F0B50A460023F6
:100C500000240021002500F00046B6F1004F02D12B
:100C6000364EF16901E0354E7168C0F3034583B239
:100C700000F44016B6F5401F08D121F070612F4EE8
:100C8000766826F070662D4F7E6012E000F48016C4
:100C9000B6F5801F06D1032606FA05F4A14341F0FC
:100CA000706106E0460D360103FA06F6B14341F0E5
:100CB000706122B1460D360103FA06F6314300F0A9
:100CC0000046B6F1004F02D11C4EF16101E01B4E0F
:100CD0007160F0BD30B500228B071C0F0F2303FAA3
:100CE00004F2164B08338C1053F824309343134C02
:100CF00008348D1044F8253023468C1053F82430E6
:100D00008C07240F00FA04F423430C4C08348D1094
:100D100044F8253030BD0A49DC31086070470000D6
:100D200000080140000C0140001001400014014087
:100D300000180140001C014000200140000001405B
:100D400000002042DF48006840F00100DD490860F3
:100D500008464068DC490840DA49486008460068AF
:100D6000DA490840D74908600846006820F4802026
:100D700008600846406820F4FE0048604FF41F00F9
:100D800088607047CF49096821F48031CD4A1160ED
:100D90001146096821F480211160B0F5803F03D02D
:100DA000B0F5802F0ED106E0C649096841F48031C4
:100DB000C44A116007E0C349096841F4A021C14A4F
:100DC000116000E000BF00BF704710B5014600226F
:100DD000002300204A11012A02D1BA4C236806E000
:100DE000022A02D1B74C236A01E0B64C636A01F0D3
:100DF0001F02012494401C400CB1012000E000209F
:100E000010BD38B5002000900024002500BF31201F
:100E1000FFF7DBFF05460098401C00900098B0F5F6
:100E2000A06F01D0002DF2D03120FFF7CEFF08B126
:100E3000012400E00024204638BD01460020A14ADC
:100E4000106820F0F80040EAC10010607047A04927
:100E500008607047024600209A4B586820F47C10C6
:100E600042EA01031843974B586070479849086657
:100E7000704701460020934A506820F00300084361
:100E8000506070478F48406800F00C007047014682
:100E900000208C4A506820F0F000084350607047F2
:100EA00001460020874A506820F4E0600843506003
:100EB000704701460020834A506820F4605040EAA1
:100EC000C1005060704729B17E4A527A02437D4B7F
:100ED0005A7204E07B4A527A82437A4B5A727047C4
:100EE0007B49D8310860704701460020754A506838
:100EF00020F440400843506070470021714A20327E
:100F00001170704A82F82010012802D004280AD1FA
:100F100004E001216B4A2032117005E00521694A85
:100F20002032117000E000BF00BF704769490860BF
:100F300070476449096A0143624A11627047654912
:100F400044390860704730B5002100220024002396
:100F50005C4D6D6805F00C0121B1042905D008290C
:100F600023D105E05C4D056022E05B4D05601FE08C
:100F7000544D6D6805F47012524D6D6805F480345F
:100F8000022505EB92421CB9544D554305600BE018
:100F90004C4D6D6805F400351DB1504D554305604D
:100FA00002E04D4D5543056002E04B4D056000BF2A
:100FB00000BF444D6D6805F0F0010909484D6B5CB8
:100FC0000568DD4045603F4D6D6805F4E061090A44
:100FD000434D6B5C4568DD4085603A4D6D6805F4B6
:100FE0006051C90A3E4D6B5C4568DD40C560354DBA
:100FF0006D6805F44041890B3A4D6B5CC568B5FBE3
:10100000F3F5056130BD29B12E4A526902432D4BDB
:101010005A6104E02B4A526982432A4B5A61704755
:1010200029B1284A92690243264B9A6104E0254A75
:1010300092698243234B9A61704729B1214AD26950
:101040000243204BDA6104E01E4AD26982431D4B01
:10105000DA61704729B11B4AD2680243194BDA6042
:1010600004E0184AD2688243164BDA60704729B10F
:10107000144A12690243134B1A6104E0114A1269BF
:101080008243104B1A61704712494039086070471B
:101090000F49C86470470B49C87170470948406AD6
:1010A00040F0807007494862704701460020054AB9
:1010B00092680A400AB1012000E00020704701490F
:1010C00088727047001002400000FFF8FFFFF6FE34
:1010D000000042428004424200127A0000093D00B2
:1010E000370000204700002010B50446FE48844227
:1010F00008D10121C014FFF7ADFF0021E014FFF774
:10110000A9FFC4E0B4F1804F08D101210846FFF7E0
:10111000AEFF00210120FFF7AAFFB8E0F3488442A8
:1011200008D101210220FFF7A2FF00210220FFF7D2
:101130009EFFACE0EE48844208D101210420FFF775
:1011400096FF00210420FFF792FFA0E0E9488442C7
:1011500008D101210820FFF78AFF00210820FFF7AE
:1011600086FF94E0E448844208D101211020FFF773
:101170007EFF00211020FFF77AFF88E0DF488442DD
:1011800008D101212020FFF772FF00212020FFF766
:101190006EFF7CE0DA48844208D101214014FFF759
:1011A00059FF00216014FFF755FF70E0D5488442D5
:1011B00009D10121C804FFF74DFF00214FF40020A1
:1011C000FFF748FF63E0D048844209D101210805B8
:1011D000FFF740FF00214FF48010FFF73BFF56E080
:1011E000CA48844209D101214805FFF733FF002195
:1011F0004FF40010FFF72EFF49E0C548844208D1A4
:1012000001214020FFF733FF00214020FFF72FFF8F
:101210003DE0C048844208D101218020FFF727FF2C
:1012200000218020FFF723FF31E0BB48844208D132
:1012300001218015FFF71BFF0021A015FFF717FF05
:1012400025E0B648844209D101210804FFF702FFD6
:1012500000214FF48030FFF7FDFE18E0B0488442D3
:1012600009D101214804FFF7F5FE00214FF40030B9
:10127000FFF7F0FE0BE0AB48844208D1012188045F
:10128000FFF7E8FE00214FF48020FFF7E3FE10BDDA
:1012900000220288944B98420ED0994B98420BD072
:1012A000B0F1804F08D0914B984205D0904B9842B6
:1012B00002D0904B984204D14FF68F731A404B885E
:1012C0001A438D4B984207D08C4B984204D04FF66E
:1012D000FF431A40CB881A4302808B8883850B8892
:1012E0000385814B98420BD0854B984208D08B4B9D
:1012F000984205D08A4B984202D08A4B984201D13D
:101300000B7A038601238382704770B50024002284
:101310000023058C4FF6FE7635400584028C8388C9
:10132000048B4FF68F752C40B51E2C400D882C4336
:10133000751E2A400D892A434D882A436A4DA842CA
:101340000BD06F4DA84208D0744DA84205D0744D03
:10135000A84202D0734DA84213D14FF6F7752A4028
:101360004D892A434FF6FB752A408D882A434FF654
:10137000FF652B404FF6FF552B408D892B43CD89C0
:101380002B4383800483CD888586028470BD70B52D
:10139000002400220023058C4FF6EF7635400584AB
:1013A000028C8388048B48F6FF752C404FF6FF456E
:1013B0002C400D884FF6FF7606EA05252C434FF6A4
:1013C000DF752A400D8906EA05152A434D8806EA8D
:1013D00005152A43444DA84202D0494DA8421DD1CB
:1013E0004FF67F752A404D894FF6FF7606EA0515C0
:1013F0002A434FF6BF752A408D8806EA05152A4311
:101400004FF6FF352B404FF2FF752B408D8906EAD2
:1014100085052B43CD8906EA85052B43838004830C
:10142000CD880587028470BD70B50024002200239A
:10143000058C4FF6FF6635400584028C8388848BCB
:101440004FF68F752C404FF6FC752C400D882C43C1
:101450004FF6FF552A400D894FF6FF7606EA05251F
:101460002A434D8806EA05252A431F4DA84202D08B
:10147000234DA8421DD14FF2FF752A404D894FF6EA
:10148000FF7606EA05252A434FF6FF352A408D8868
:1014900006EA05252A434EF6FF752B404DF6FF75EB
:1014A0002B408D8906EA05152B43CD8906EA0515E3
:1014B0002B4383808483CD888587028470BD70B57B
:1014C000002200230024058C4EF6FF76354005846B
:1014D000038C8488828B48F6FF752A404FF6FF45BF
:1014E0002A400D8820E00000002C0140000400404C
:1014F00000080040000C00400010004000140040B4
:1015000000340140004C01400050014000540140B3
:1015100000180040001C0040002000400040014036
:1015200000440140004801404FF6FF7606EA0525D9
:101530002A434DF6FF752B400D8906EA05352B43EE
:101540004D8806EA05352B43FA4DA84202D0FA4DE4
:10155000A84208D14BF6FF752C408D894FF6FF76D7
:1015600006EA85152C4384808283CD88A0F84050FC
:10157000038470BD828B4FF2FF331A408283828BCB
:101580004FF6FF7303EA01231A4382837047F0B5D5
:101590000C461546002200210026078C4EF6FF7CE3
:1015A00007EA0C070784828B018C4FF6FF7707EA66
:1015B000043640F6FF473A404FF6FF7707EA052723
:1015C0003A434FF6FF7707EA03373A43D94FB84219
:1015D0000ED0D94FB8420BD0B0F1804F08D0D74FC2
:1015E000B84205D0D64FB84202D0D64FB84206D145
:1015F0004DF6FF77394046F48057394305E047F60A
:10160000FF57394044F48057394382830184F0BD49
:10161000828B4FF6F3731A408283828B0A43828354
:101620007047F0B50C461546002200210026078CB5
:101630004FF6FF6C07EA0C070784828B018C4FF68C
:10164000FF7707EA04264FF60C773A404FF6FF770C
:1016500007EA03172F433A43B64FB8420ED0B64FAE
:10166000B8420BD0B0F1804F08D0B44FB84205D08B
:10167000B34FB84202D0B34FB84206D14FF6FF572E
:10168000394046F48077394305E04FF2FF5739403F
:1016900044F48077394382830184F0BD028B4FF29A
:1016A000FF331A400283028B4FF6FF7303EA0123D4
:1016B0001A4302837047F0B50C46154600220021FC
:1016C0000026078C4FF6EF7C07EA0C070784028B95
:1016D000018C4FF6FF7707EA041640F6FF473A40C1
:1016E0004FF6FF7707EA03373A434FF6FF7707EAEB
:1016F00005273A438F4FB8420ED08F4FB8420BD0D8
:10170000B0F1804F08D08D4FB84205D08C4FB84211
:1017100002D08C4FB84206D14FF6DF77394046F001
:101720001007394305E04FF65F77394044F0100762
:10173000394302830184F0BD028B4FF6F3731A40E4
:101740000283028B0A4302837047F0B50C461546AC
:1017500000220021068C4FF6FE773E400684028B65
:10176000018C4FF60C7632407E1C06EA03162E439F
:101770003243704EB0420ED06F4EB0420BD0B0F13B
:10178000804F08D06D4EB04205D06D4EB04202D0B1
:101790006C4EB04206D14FF6FD76314044F0010662
:1017A000314305E04FF6F576314044F00106314310
:1017B00002830184F0BD70B505460C465D48854244
:1017C0000ED05D4885420BD0B5F1804F08D05B4804
:1017D000854205D05A48854202D05A48854200D1F8
:1017E00000E000BF208850B92389A288618828467C
:1017F000FFF7ABFFE1882846FFF79EFF25E0208832
:1018000004280AD12389A28861882846FFF753FF5C
:10181000E1882846FFF742FF17E0208808280AD110
:101820002389A28861882846FFF7FBFEE1882846C5
:10183000FFF7EEFE09E02389A28861882846FFF7BA
:10184000A6FEE1882846FFF795FE70BD2DE9F04120
:1018500005460C4600260127608808B9022600E0EC
:101860000026A088012801D1022700E00127208856
:10187000A0B92389A28861882846FFF766FFE1881E
:101880002846FFF759FF23893A4631462846FFF795
:1018900012FFE1882846FFF701FF13E02389A288A1
:1018A00061882846FFF707FFE1882846FFF7F6FE24
:1018B00023893A4631462846FFF747FFE188284604
:1018C000FFF73AFFBDE8F0810A884B881A438B88FE
:1018D0001A43CB881A430B891A434B891A438B89C5
:1018E0001A43A0F8442070474FF6FF718180002111
:1018F0000180C180418001727047002101804180D8
:101900008180C180018141818181C1817047002135
:1019100001804180012181800021C18001817047C7
:101920000021018041808180C180018141818181CC
:1019300070470000002C01400034014000040040CA
:1019400000080040000C004021B1028842F0010272
:10195000028004E002884FF6FE731A40028070474E
:1019600031B1B0F8442042F40042A0F8442005E030
:10197000B0F84420C2F30E02A0F8442070471AB118
:1019800083890B43838102E083898B438381704782
:101990008182704741EA0203A0F8483070471AB1CB
:1019A00083890B43838102E083898B438381704762
:1019B00001894FF6F8721140018170470A460021F3
:1019C00001894FF68F73194011430181704730B57B
:1019D00004460D4629462046FFF7F0FF208940F0D7
:1019E0000700208130BD2DE9F04104460D46164622
:1019F0001F46602D06D13B46012231462046FFF7A7
:101A00005AFE05E03B46012231462046FFF79DFE87
:101A100029462046FFF7D2FF208940F007002081A9
:101A2000BDE8F08130B50C4600210189C9B24FF6FE
:101A3000FF7505EA0325154325432943018130BD80
:101A40002DE9F04105460E461746984600244346C8
:101A50003A4631462846FFF7E5FF2C894FF6F870E5
:101A6000044044F007044FF68F70044044F07004C3
:101A70002C81BDE8F081F0B504460D4616461F46A0
:101A80003B46324629462046FFF7CCFF208940F4EA
:101A900080402081F0BD0185828270470A46002186
:101AA00001884FF68F731940114301807047F0B5DC
:101AB0000C4615461E460021002200230189028B98
:101AC000038C4FF6F877394021434FF6FC473A40F4
:101AD00040F201173A434FF6DD773B404FF6FF7770
:101AE00007EA06172F433B43018102830384F0BDBD
:101AF0000A460021018B4FF68F7319401143018371
:101B000070470A460021018B48F6FF7319404FF6D3
:101B1000FF7303EA02231943018370470A46002139
:101B2000818B4FF68F7319401143818370470A46AA
:101B30000021818B48F6FF7319404FF6FF7303EACB
:101B4000022319438183704721B1028842F0800249
:101B5000028004E002884FF67F731A4002807047CB
:101B600021B1828842F00402828004E082884FF62C
:101B7000FB731A408280704721B1828842F00802CC
:101B8000828004E082884FF6F7731A4082807047A3
:101B900021B1828842F00102828004E082884FF6FF
:101BA000FE731A40828070470A460021018B4FF66F
:101BB000F77319401143018370470A460021018BD6
:101BC0004FF2FF7319404FF6FF7303EA02231943E4
:101BD000018370470A460021818B4FF6F773194045
:101BE0001143818370470A460021818B4FF2FF73B6
:101BF00019404FF6FF7303EA0223194381837047AC
:101C00000A460021018B4FF6FB73194011430183F3
:101C100070470A460021018B4FF6FF3319404FF6FB
:101C2000FF7303EA02231943018370470A46002128
:101C3000818B4FF6FB7319401143818370470A462D
:101C40000021818B4FF6FF3319404FF6FF7303EAF3
:101C500002231943818370470A460021018B4FF606
:101C60007F7319401143018370470A460021018B9D
:101C7000C1F30E014FF6FF7303EA022319430183F8
:101C800070470A460021818B4FF67F73194011433C
:101C9000818370470A460021818BC1F30E014FF604
:101CA000FF7303EA02231943818370470A46002128
:101CB000018C4FF6FD7319401143018470470A46A9
:101CC0000021018C4FF6F7731940114301847047CE
:101CD0000A460021018C4FF6DF7319404FF6FF735F
:101CE00003EA02131943018470470A460021018C5C
:101CF0004FF67F7319404FF6FF7303EA021319433F
:101D0000018470470A460021018C4FF6FF531940A9
:101D10004FF6FF7303EA02231943018470470A4612
:101D20000021018C4FF2FF7319404FF6FF7303EA55
:101D300002231943018470470A460021018C4DF6A5
:101D4000FF7319404FF6FF7303EA0233194301840E
:101D5000704730B5002301248C40A3B2048C9C430F
:101D60000484048C02FA01F5ADB22C43048430BD26
:101D700030B5002304248C40A3B2048C9C4304841B
:101D8000048C02FA01F5ADB22C43048430BD70B569
:101D90000346002000241846183001258D40ACB2BF
:101DA0001D8CA5431D8409B1082909D100EB6100F0
:101DB000056825F0700505600568154305600EE0AF
:101DC0000D1FC5F34E052844056825F4E045056060
:101DD00005684FF6FF7606EA02263543056070BDBA
:101DE00021B1028842F00202028004E002884FF62C
:101DF000FD731A400280704721B1028842F004024C
:101E0000028004E002884FF6FB731A40028070479C
:101E100021B1828842F08002828004E082884FF6FD
:101E20007F731A408280704702884FF6F7731A401A
:101E3000028002880A430280704782884FF68F73BF
:101E40001A40828082880A438280704702894FF656
:101E5000F8731A40028102890A430281704702899D
:101E60004FF67F731A40028102890A43028170474C
:101E700081847047818570478186704701877047EC
:101E800081877047A0F84010704702884FF6FF43E3
:101E90001A40028002880A43028070470146888EF9
:101EA00070470146088F70470146888F704701468A
:101EB000B1F8400070470146888C70470146088D94
:101EC000704702460020138A0B400BB1012000E04E
:101ED00000207047CA430282704730B50246002096
:101EE00000230024158A05EA0103958905EA010407
:101EF00013B10CB1012000E0002030BDCA430282C2
:101F00007047000010B50446FB48844209D1012106
:101F10008803FFF79FF800214FF48040FFF79AF8FD
:101F200032E0F648844209D101214804FFF79FF8C6
:101F300000214FF40030FFF79AF825E0F048844282
:101F400009D101218804FFF792F800214FF4802085
:101F5000FFF78DF818E0EB48844209D10121C8044D
:101F6000FFF785F800214FF40020FFF780F80BE021
:101F7000E548844208D101210805FFF778F80021DF
:101F80004FF48010FFF773F810BD2DE9F04786B0CD
:101F900005460E460024A24600BFA1460027B08990
:101FA00000B100BF2F462C8A4CF6FF700440F08829
:101FB00004432C82AC894EF6F3100440B08831897A
:101FC0000843718908430443AC81AC8A4FF6FF4053
:101FD0000440B0890443AC8201A8FEF7B4FFC648B0
:101FE000874202D1DDF810A001E0DDF80CA0A8893D
:101FF00000F4004040B10AEBCA0000EB0A1031685F
:102000004900B0FBF1F807E00AEBCA0000EB0A1048
:1020100031688900B0FBF1F86420B8FBF0F00401EE
:102020002009642101FB1089A88900F4004040B117
:10203000322000EBC900B0FBF1F000F007000443D0
:1020400008E0322000EB09106421B0FBF1F000F051
:102050000F0004432C8106B0BDE8F0874FF4165101
:10206000016000218180C18001810C21418100211A
:102070008181704710B502460020108A4FF2FF039D
:1020800018400B884C8823438C882343CC882343F7
:102090001843108210BD0021018041808180C180E1
:1020A000704721B1828942F40052828104E0828922
:1020B0004DF6FF731A4082817047F0B50346002445
:1020C00000260025002040F66A17B94200D100BF63
:1020D0001846C1F3421401F01F06012707FA06F55E
:1020E000012C01D10C3004E0022C01D1103000E0B1
:1020F00014301AB107682F43076002E00768AF4346
:102100000760F0BD1AB1838A0B43838202E0838AA1
:102110008B4383827047028A4FF6F0731A40028223
:10212000028A0A430282704782894FF2FF731A4083
:10213000828182890A438281704721B1828942F07B
:102140000202828104E082894FF6FD731A40828187
:102150007047028A4FF6DF731A400282028A0A43EE
:102160000282704721B1028A42F48042028204E076
:10217000028A4BF6FF731A4002827047C1F30802CD
:102180008280704701468888C0F3080070478189C3
:1021900041F0010181817047028BD2B20283028B30
:1021A00042EA012202837047028B02F47F420283DB
:1021B000028B0A430283704721B1828A42F02002D7
:1021C000828204E0828A4FF6DF731A40828270476F
:1021D00021B1828A42F01002828204E0828A4FF6A4
:1021E000EF731A408282704721B1828A42F008025E
:1021F000828204E0828A4FF6F7731A408282704727
:1022000021B1828942F40042828103E08289C2F3D3
:102210000E028281704721B1828A42F4006282827A
:1022200004E0828A4FF2FF731A4082827047828AEA
:102230004FF6FB731A408282828A0A438282704779
:1022400021B1828A42F00202828204E0828A4FF641
:10225000FD731A408282704702460020B1F5007F6C
:1022600000D100BF13880B400BB1012000E000201B
:10227000704701F40072B2F5007F00D100BFCA437D
:102280000280704770B5024600240023002500201C
:1022900040F66A16B14200D100BFC1F3421501F009
:1022A0001F03012606FA03F3012D02D1968933405C
:1022B00006E0022D02D1168A334001E0968A3340AF
:1022C0000C12012606FA04F41688344013B10CB13E
:1022D000012000E0002070BD10B50022002340F670
:1022E0006A14A14200D100BF0A1201249440A3B293
:1022F000DC43048010BD0000003801400044004071
:1023000000480040004C00400050004010B56FF005
:102310000400FEF74AFB2E4800682E49B0FBF1F09E
:102320002D4908700846007800EB4001C1EBC01051
:102330004FF6FF7101EAC0002849088010BD014630
:10234000254A12784A434FF0E0235A6100229A61ED
:102350001A46126942F001021A6100BF4FF0E022F2
:10236000106900F001021AB100F48032002AF5D0A1
:102370004FF0E022126922F001024FF0E0231A61CF
:1023800000229A6170470146144A12884A434FF06E
:10239000E0235A6100229A611A46126942F0010252
:1023A0001A6100BF4FF0E022106900F001021AB17B
:1023B00000F48032002AF5D04FF0E022126922F0BA
:1023C00001024FF0E0231A6100229A617047000079
:1023D0001800002000127A004C0000204E0000205F
:1023E00010B54FF4A060FEF791FA10BD10B588B09B
:1023F00004460020FEF75DFD012144F20400FEF7D3
:102400000FFE4FF40070ADF8000018208DF80300A7
:1024100003208DF8020069465348FEF745FB4FF450
:102420008060ADF8000004208DF8030069464E4836
:10243000FEF73AFB25208DF8040000208DF80500FA
:102440008DF8060001208DF8070001A8FEF763FA59
:1024500004940020ADF81400ADF81600ADF8180093
:10246000ADF81C000C20ADF81A000020ADF80800F3
:10247000ADF80A004FF40070ADF80C000020ADF884
:102480000E0004A93948FFF780FD02A93748FFF77D
:10249000F1FD012240F225513448FFF70EFE0121E3
:1024A0003248FFF7FEFD08B010BD10B50446A1B2DA
:1024B0002E48FFF763FE00BF80212C48FFF7CCFEBB
:1024C0000028F9D010BD10B5044604E094F90000CE
:1024D000FFF7EBFF641C20780028F7D110BD70B522
:1024E00004460D4604E0217848B2FFF7DEFF641C85
:1024F0002800A5F10101CDB2F5D170BD10B540F2B3
:1025000025511A48FFF7BEFE60B31948007801282C
:1025100010D1184908700020174908701348FFF7B8
:1025200031FEC1B214480478601C134A107013487D
:1025300001550AE00D48FFF725FEC1B20E480478A8
:10254000601C0D4A10700D480155002008490870A4
:1025500000214FF08040FFF78BFC40F225510348EB
:10256000FFF7BAFE10BD000000080140003801402E
:102570005000002051000020520000206000002088
:102580001FB504464FF4C060FEF7C0F91C208DF85B
:102590000C0000208DF80D0001208DF80E008DF844
:1025A0000F0003A8FEF7B7F901210846FEF745FD25
:1025B0004FF08040FEF798FD0120C0EB440080B250
:1025C000ADF8040048F69F40ADF800000020ADF8DB
:1025D0000600ADF8020069464FF08040FEF758FE55
:1025E00001218807FFF776FC012211469007FFF7CB
:1025F000C6F901218807FFF7A7F91FBD10B5012112
:102600008807FFF76AFC78B101200A4908700A4878
:102610000078012808D100200849094A1278885416
:10262000054908700749087001218807FFF766FC13
:1026300010BD00005000002051000020600000206C
:10264000520000203600002008B501210420FEF7CA
:10265000E7FC10208DF8030002208DF80200C00175
:10266000ADF8000069460948FEF71EFA4FF4807184
:102670000648FEF7C6FA08BD10B50548007810B147
:1026800000F078FF01E000F083FF10BD000801407A
:102690005300002007E041F2883100BF0A00A1F199
:1026A0000101FBD1401E0028F5D1704708B501217A
:1026B0000420FEF7B5FC01210820FEF7B1FC102034
:1026C0008DF80300A020ADF8000001208DF8020075
:1026D0006946F948FEF7E8F90320ADF800006946BD
:1026E000F648FEF7E1F908BD70B504460825022159
:1026F000F348FEF788FA0221F048FEF784FA202119
:10270000ED48FEF780FA15E004F0800020B180214A
:10271000E948FEF776FA03E08021E748FEF773FA0E
:102720002021E548FEF76DFA2021E348FEF76BFA19
:102730006006040E2800A5F10101CDB2E4D102210A
:10274000DF48FEF75EFA70BD70B504460825022129
:10275000DB48FEF758FA0221D848FEF752FA20214A
:10276000D548FEF750FA15E004F0800020B1802132
:10277000D148FEF746FA03E08021CF48FEF743FA3E
:102780002021CD48FEF73DFA2021CB48FEF73BFA49
:102790006006040E2800A5F10101CDB2E4D10221AA
:1027A000C748FEF72EFA70BD70B50646002415E046
:1027B00004F1B001C8B2FFF797FF0120FFF794FFC3
:1027C0001020FFF791FF002504E03046FFF7BCFF23
:1027D000681CC5B2802DF8DB601CC4B2082CE7DB96
:1027E00070BD70B504460D4605F1B001C8B2FFF7E3
:1027F0007BFF102141EA1410FFF776FF04F00F0170
:1028000041F00100FFF770FF70BD70B505460C4642
:10281000FFF74CFF2021A848FEF7F3F90221A84852
:10282000FEF7F1F90121A548FEF7EDF93220FFF797
:1028300031FF0121A148FEF7E4F9AE20FFF754FF74
:102840000020FFF751FF1020FFF74EFF4020FFF759
:102850004BFF8120FFF748FF2846FFF745FF34B1C3
:10286000A120FFF741FFC820FFF73EFF05E0A020B1
:10287000FFF73AFFC020FFF737FFA620FFF734FF2E
:10288000A820FFF731FF3F20FFF72EFFD320FFF7EF
:102890002BFF0020FFF728FFD520FFF725FF802022
:1028A000FFF722FFD920FFF71FFFF120FFF71CFFE2
:1028B000DA20FFF719FF1220FFF716FFDB20FFF7E2
:1028C00013FF4020FFF710FF2020FFF70DFF02202D
:1028D000FFF70AFF8D20FFF707FF1420FFF704FF23
:1028E000A420FFF701FFA620FFF7FEFEAF20FFF7B1
:1028F000FBFE0020FFF758FF00210846FFF771FF9D
:1029000070BD70B5002418E004F1B001C8B2FFF743
:10291000EBFE0020FFF7E8FE1020FFF7E5FE0025A4
:1029200007E0684901EBC501085DFFF70DFF681C72
:10293000C5B2802DF5DB601CC4B2082CE4DB70BD91
:10294000F0B5144600267F2801DC3F2900DDF0BDEC
:102950000B46CF1701EB5777FF10C7F10707FAB205
:10296000CF1701EB5777FF10A1EBC707FDB2C5F1F9
:1029700007070123BB40DEB24CB1524B03EBC0034F
:102980009B5C33434F4F07EBC007BB5408E04D4BF4
:1029900003EBC0039B5CB3434A4F07EBC007BB5438
:1029A00000BFD4E72DE9F04706460F46904699460A
:1029B000DDF820A034460CE03D4606E052462946AC
:1029C0002046FFF7BDFF681CC5B24D45F6DD601C13
:1029D000C4B24445F0DDFFF794FFBDE8F0872DE970
:1029E000F05F07460D4690461C46DDF828B04FF0D4
:1029F000000A002615E0A819C1B23846FFF7F1FE1B
:102A00004FF0000909E01BF80A00FFF79DFE0AF1EC
:102A1000010A09F1010000F0FF09C145F3DB701C58
:102A2000C6B2E11704EB5171B6EBE10FE3DB2648C8
:102A3000077026480570BDE8F09FF8B506460F46BA
:102A40001546002413E02857203800EB40002049A9
:102A500001EB400004EB440106EB41010090C8B2D9
:102A6000082306223946FFF7BAFF601CC4B2285D6E
:102A70000028E8D1F8BDF8B506460F4615460024F3
:102A80000FE028572038134901EB001006EBC40172
:102A90000090C8B2102308223946FFF7A0FF601C3F
:102AA000C4B2285D0028ECD1F8BDF8B505460F4644
:102AB000164600245AE0000000080140000C0140C6
:102AC00000100140D80000205400002055000020D4
:102AD0009A3C0008C23E000830572B2828D02D28E9
:102AE0001AD02E280CD03A282ED1994805EB041183
:102AF0000090C8B2202310223946FFF770FF32E061
:102B00009348503005EB04110090C8B220231022E6
:102B10003946FFF764FF26E08D48A03005EB04112D
:102B20000090C8B2202310223946FFF758FF1AE060
:102B30008748F03005EB04110090C8B22023102222
:102B40003946FFF74CFF0EE030573038814901EB32
:102B5000801005EB04110090C8B2202310223946E2
:102B6000FFF73DFF00BF00BF601CC4B2305D00280E
:102B7000B2D1F8BD01460120002204E000EB800341
:102B80005800531CDAB28A42F8DB70472DE9F0474F
:102B900006460C46174600254FF0010AB6B930220A
:102BA0002846691CCDB22254012F0ADD002005E021
:102BB000302329466A1CD5B26354401C791E8142D9
:102BC000F6DC002060552846BDE8F087002E05DAC7
:102BD00076422D222846691CCDB2225447BB4FF0C5
:102BE00009081FE008F0FF00FFF7C4FF96FBF0F9AB
:102BF000BAF1000F03D0B9F1000F00D10EE04FF091
:102C0000000A0A2099FBF0F100FB119909F130004C
:102C100042B22846691CCDB2225400BFA8F101007F
:102C20004FFA80F8B8F1000FDCDA002060551FE0A1
:102C3000781E4FFA80F815E008F0FF00FFF79AFFC2
:102C400096FBF0F90A2099FBF0F100FB119909F1CC
:102C5000300042B22846691CCDB22254A8F10100CE
:102C60004FFA80F8B8F1000FE6DA0020605500BF97
:102C70002846A9E7FEB506460F4614461D46002223
:102C800069462046FFF782FF012D04D0022D08D0AF
:102C9000032D12D10BE06A4639463046FFF7CDFED0
:102CA00011E06A4639463046FFF7E5FE0BE06A461A
:102CB00039463046FFF7F9FE05E06A4639463046A8
:102CC000FFF7D9FE00BF00BFFEBD2DE9F04387B07E
:102CD0000746884614461D46DDF838900026002237
:102CE00001A92046FFF752FF06462E223046711CEE
:102CF000CEB201A90A5401A8811900222846FFF783
:102D000045FFB9F1010F06D0B9F1020F09D0B9F1B1
:102D1000030F12D10BE001AA41463846FFF78DFEA2
:102D200011E001AA41463846FFF7A5FE0BE001AAD3
:102D300041463846FFF7B9FE05E001AA414638464C
:102D4000FFF799FE00BF00BF07B0BDE8F0830000A9
:102D5000724A0008B244000810B56748006820F4C1
:102D60007040654908600846006840F440500860BB
:102D70000020624908601420FFF705FB012060492C
:102D8000C1F8AC011E20FFF7DAFA10BD10B500241F
:102D90005948006820F470405749086008460068A8
:102DA00040F40040086004E0601CC4B20120FFF75A
:102DB000C6FA52488038006808B1642CF4DB642CF1
:102DC00001DB012010BD002404E0601CC4B201201E
:102DD000FFF7B5FA49488038006808B9642CF4DB7D
:102DE000642C01DB0120EDE70020EBE710B50024A7
:102DF00004E0601CC4B20120FFF7A1FA3F4880380C
:102E0000006808B1642CF4DB002404E0601CC4B248
:102E10000120FFF794FA39488038006808B9642C1B
:102E2000F4DB2820FFF78BFA34488038006808B1BB
:102E3000012010BD0020FCE770B50024002506E04D
:102E40006006040EFFF7D2FF0443681CC5B2082DCC
:102E5000F6DB204670BD7CB50446FFF77DFFFFF72B
:102E600095FF28BB002505E0FFF7E6FF0DF80500FC
:102E7000681CC5B2052DF7DB9DF800009DF8011018
:102E800008449DF8021008449DF8031008449DF87A
:102E9000041088420ED19DF8000020709DF80100BA
:102EA00060709DF80200A0709DF80300E07001E0E2
:102EB00001207CBD0020FCE708B501210820FEF7B9
:102EC000AFF84FF40060ADF8000010208DF803005B
:102ED00003208DF8020069460748001FFDF7E4FD56
:102EE0004FF400610448001FFDF78BFEFFF734FF2D
:102EF000FFF74CFF08BD0000040C0140AC812142EB
:102F0000008021429548806940F00800934988611B
:102F10009348006820F07F409149086008460068A7
:102F200040F04C5008608E480C30006840F0C00003
:102F30008B490C310860704710B58948006820F053
:102F40007040874908600846006840F040500860BB
:102F50000120844908608449C1F898010420FFF7E2
:102F6000EEF900207F4908600420FFF7E8F900200F
:102F70007D49C1F8980110BD10B57948006820F06E
:102F80007040774908600846006840F0405008608B
:102F900000207449091F08607349C1F89C0104208E
:102FA000FFF7CDF901206F49091F08606E49C1F88C
:102FB0009C010420FFF7C3F910BD10B50024684838
:102FC000006820F07040664908600846006840F0DC
:102FD00000400860012063490860FFF7B0F9012054
:102FE0006149C1F89801FFF7AAF907E0601CC4B273
:102FF000FA2C03DDFFF7C0FF012010BD59488038CF
:1030000000680028F2D15749091F086000BFF4E7A3
:1030100010B500205349091F08605148006820F08E
:1030200070404F4908600846006840F04050086012
:1030300000204D49C1F89C010220FFF780F90120D2
:103040004849091F08600220FFF779F90020464926
:10305000C1F8980110BD10B500204249091F086051
:103060003F48006820F070403D490860084600680D
:1030700040F04050086001203B49C1F89C0102200B
:10308000FFF75DF901203749091F08600220FFF7AB
:1030900056F900203449C1F8980110BD70B50446B6
:1030A0002F48006820F070402D49086008460068ED
:1030B00040F04050086000202A49091F08600025A0
:1030C00017E0E009274908606006040E0220FFF7B8
:1030D00036F901202449C1F898010220FFF72FF9A1
:1030E00000202049091F08600220FFF728F9681C0A
:1030F000C5B2082DE5DB70BD70B505460024184843
:10310000006820F07040164908600846006840F0EA
:1031100000400860002617E000201249091F0860DF
:103120000220FFF70CF901200F49C1F89801600651
:10313000040E0C488038006808B1601CC4B201203D
:10314000FFF7FDF8701CC6B2082EE5DB15B9FFF7D6
:1031500082FF01E0FFF75CFF204670BD00100240D7
:10316000000C01409C8121420080214210B50446A0
:10317000FFF7E2FE4620FFF791FFFFF71EFF204614
:10318000FFF78CFFFFF719FFFFF7F6FE10BD2DE9E3
:10319000F05F0024A146FFF7CFFE4720FFF77EFF38
:1031A000FFF70BFF0120FFF7A7FF81460020FFF785
:1031B000A3FF0446FFF7E0FE04EB09201FFA80FAA4
:1031C000504600F011FC834600F0CAFB07464FF062
:1031D0003332184B00F0EAF9054600F03FFB1FFAC6
:1031E00080FA5046BDE8F09F10B50446FFF7A4FEF4
:1031F0004720FFF753FFFFF7E0FE0120FFF77CFFBA
:1032000020700020FFF778FF6070FFF7B5FE10BD5B
:1032100010B5FFF777FE0120FFF7A8FF10BD10B52E
:103220000120FFF7A3FF10BD10B51020FFF79EFF90
:1032300010BD00003333F33F10B5FFF763FE10BD40
:1032400070B50446FFF778FEEE20FFF727FFFFF783
:10325000B4FE2046FFF722FFFFF7AFFEFFF78CFE1C
:10326000FFF76AFEEF20FFF719FFFFF7A6FE002029
:10327000FFF742FF0546FFF77FFE284670BD70B599
:103280000446FFF759FEEE20FFF708FFFFF795FE13
:103290002046FFF703FFFFF790FEFFF76DFEFFF7F5
:1032A0004BFEEF20FFF7FAFEFFF787FE0120FFF746
:1032B00023FF05460020FFF71FFF0646FFF75CFED1
:1032C00006EB052080B270BD70B504462046FFF7BE
:1032D000D6FF054628B270BD70B505460C46FFF70F
:1032E0002BFEEE20FFF7DAFEFFF767FE2846FFF71A
:1032F000D5FEFFF762FE2046FFF7D0FEFFF75DFE2A
:10330000FFF73AFE70BD10B5AA20FFF7DDFF784940
:103310000880AC20FFF7D8FF75494880AE20FFF742
:10332000D3FF73498880B020FFF7A9FF7049C88098
:10333000B220FFF7A4FF6E490881B420FFF79FFF7A
:103340006B494881B620FFF7BFFF69498881B820E3
:10335000FFF7BAFF6649C881BA20FFF7B5FF644995
:103360000882BC20FFF7B0FF61494882BE20FFF70A
:10337000ABFF5F49888210BD10B52E21F420FFF706
:10338000ABFF10BD10B5F620FFF79EFF594908604E
:1033900010BD10B53421F420FFF79EFF10BD70B5AD
:1033A000F620FFF74DFF0446F720FFF749FF0546DB
:1033B000F820FFF745FF0646200440EA0520304389
:1033C000000A4D49086070BD49484089494B1B6857
:1033D000181A474B1B895843C1134548B0F91200CE
:1033E000C002434BB3F914300B4490FBF3F288183E
:1033F0003F4B9861184680690830001100B2704751
:103400002DE9F041DFF8E8C0DCF818C0ACF57A61CE
:10341000DFF8DCC0BCF90EC001FB01F80CFB08FCB6
:103420004FEAEC52DFF8C8C0BCF902C00CFB01FC4B
:103430004FEAEC23D518DFF8B8C0BCF900C005EBA3
:103440008C0C0CF1020C4FEAAC07DFF8A4C0BCF9FD
:1034500004C00CFB01FC4FEA6C32DFF894C0BCF9ED
:103460000CC001FB01F84FEA28380CFB08FC4FEABE
:103470002C4302EB030C0CF1020C4FEAAC05DFF815
:1034800070C0BCF806C005F500480CFB08FC4FEA0C
:10349000DC36DFF864C0DCF800C0ACEB070C4CF2A3
:1034A00050380CFB08F4B4F1004F04D24FEA440C3E
:1034B000BCFBF6F003E0B4FBF6FC4FEA4C004FEA2D
:1034C000202C0CFB0CF240F6DE3C02FB0CFC4FEA1D
:1034D0002C42DFF828C000FB0CFC4FEA2C4302EB27
:1034E000030C0CF6CF6C00EB2C10BDE8F081000053
:1034F000D8040020580000205C00002043E3FFFFB8
:10350000704770477047754600F028F8AE460500D2
:103510006946534620F00700854618B020B5FDF7F0
:10352000E3F9BDE820404FF000064FF000074FF0F0
:1035300000084FF0000B21F00701AC46ACE8C009D1
:10354000ACE8C009ACE8C009ACE8C0098D467047DA
:103550000446AFF300802046FCF731FE0048704778
:10356000F404002001491820ABBEFEE7260002004B
:103570007047000010B54FF480710348FDF741FB20
:1035800000200249087010BD0008014053000020CF
:1035900010B54FF480710348FDF735FB0120024957
:1035A000087010BD00080140530000202DE9C04103
:1035B00030B4DFF8A0C23CEA111418BF3CEA13147F
:1035C00000F0EC8081EA03051CEA111444EAD5748A
:1035D00018BF1CEA131500F0C780A4EB05044FF0D8
:1035E000004545EAC12145EAC32341EA505143EA77
:1035F000525304F17F74994204F500344FEAC0201D
:103600004FEAC22208BF904200F09C804FEA136547
:103610000FF24016765D4FEA134506FB05F7C7F13A
:10362000807706FB07F74FEAD737A7FB0368764298
:10363000C8F58038A7FB06CE38BFA8F1010807FB04
:1036400008E64FF0000EA6FB028CE6FB03CEDCF191
:10365000000CCEF1004E38BFAEF1010EA6FB0C58A7
:103660004FF000074FF00005E6FB0E87A1FB08C6F0
:10367000A0FB07CE16EB0E0645F10005E1FB076542
:1036800015F1E04E7EBFA4F580345FEA46066D4139
:1036900016F1800745F100054FEA17274FEA066645
:1036A00047EA0567A6F1DE46B6F1805F4FEA1525C9
:1036B0001FD9384624F0010C05EBC471BCF1FE6F34
:1036C00001EB0C1102D8F0BCBDE8008124425CBFC4
:1036D00001F5801E9EEAC47F02D4F0BCBDE80081E3
:1036E000244238D4F0BCA1F1C041BDE8004100F053
:1036F00030B94FEAD22242EA43524FEAD323A7FB22
:1037000002864FEAD02040EA415007FB03661EEADA
:103710000E0F4FEAD12105FB026658BFA6EB0056FB
:10372000B6EB00564FEA520E4EEAC37E18EB0E0E71
:1037300056EB530EBDD518EB02085E417F1C55F1C8
:103740000005B6E74FF480154FF000074FF0000674
:103750004FF00008ADE7F0BC4FF0000001F1C041B0
:1037600001F00041BDE8008111EA0C1F0CEA1315BD
:1037700000D00CE013EA0C1F00F025804FF0000091
:10378000F0BC81EA030101F00041BDE80081F0BC1A
:10379000BDE8004181EA030100F0DBB8F0BCBDE800
:1037A000004170B500F087F8097EFC3E00F007B8D4
:1037B00081EA03014FF0000001F00041704781EA07
:1037C000030100F0C6B8F0BCBDE800414FF00000B6
:1037D00021497047FFFDFBF9F7F5F4F2F0EEEDEB50
:1037E000E9E8E6E4E3E1E0DEDDDBDAD8D7D5D4D3FF
:1037F000D1D0CFCDCCCBCAC8C7C6C5C4C2C1C0BF4B
:10380000BEBDBCBBBAB9B8B7B6B5B4B3B2B1B0AF50
:10381000AEADACABAAA9A8A8A7A6A5A4A3A3A2A134
:10382000A09F9F9E9D9C9C9B9A99999897979695EF
:1038300095949393929191908F8F8E8E8D8C8C8B8B
:103840008B8A898988888787868585848483838213
:10385000828181800000FF070000F87F4FEA11534A
:10386000A3F58063D3F11E03A8BFD3F1200C08DBBE
:103870004FF0004242EAC12252EA505232FA03F0BB
:10388000704709420BD4102BC4BF0020704703F5CA
:10389000787CBCF1FF3F05D04FF0FF3070474FF010
:1038A0000000704770B500F006F800BF4992248010
:1038B00000207047F0E70EF1020E2EF0030E5EF8C6
:1038C000046B364205D4012A43EB030515F5001FAE
:1038D00012D8012841EB010C1CF5001F0CD80ED1A9
:1038E0004FEAD17C15F5001F0CEB4C0C0CF1020CCF
:1038F00008BF4CEBD37C04E04FF0080C01E04FEA2A
:10390000D37C0CEB4C0526FA05F606F00706B6F15B
:10391000040C06D20EEB860CBDE870404CF0010C96
:103920006047DFE80CF0090B02024FF000414FF056
:103930000000A1F5002170BD19461046012851EB89
:10394000010418BFD4F5001484BF002001F0004129
:1039500070BD0808A0F500114FEA31017047000062
:1039600043004FEAD30C4FEA3C0C43401FBF4007D3
:103970000CF1605113F0FE4F70471CF0006F03D143
:1039800000200CF0004170470CF0004343EA5070F7
:1039900010B540EACC0000F03AF800BF00000092F9
:1039A0004FEA0001FFF7D5BF4FF000414FF0000094
:1039B000A1F500217047000010F0004148BF4042CF
:1039C000B0FA80F310FA03F2C3F19D030BD051EA71
:1039D000C35101EB1220530638BF704700F10100BC
:1039E00008BF20F001007047B0FA80F310FA03F22C
:1039F000C3F19D030AD0D90501EB1220530638BF4D
:103A0000704700F1010008BF20F0010070470EF17F
:103A1000020E2EF0030E5EF8044B244204D44FEA4B
:103A20004102B2F17F4F11D84FEA4003B3F17F4F0B
:103A30000CD80ED14FEAD07CB2F17F4F0CEB4C0C7E
:103A40000CF1020C08BF4CEBD17C04E04FF0080CE9
:103A500001E04FEAD17C0CEB4C0324FA03F404F0B0
:103A60000704B4F1040C06D20EEB840CBDE8104040
:103A70004CF0010C6047DFE80CF0070802024FF041
:103A80000040A0F5800010BD0846420018BFD2F1EA
:103A9000807288BF00F0004010BD00C1814001C0AD
:103AA000804101C0804100C1814001C0804100C10E
:103AB000814000C1814001C0804101C0804100C1FE
:103AC000814000C1814001C0804100C1814001C0EE
:103AD000804101C0804100C1814001C0804100C1DE
:103AE000814000C1814001C0804100C1814001C0CE
:103AF000804101C0804100C1814000C1814001C0BE
:103B0000804101C0804100C1814001C0804100C1AD
:103B1000814000C1814001C0804101C0804100C19D
:103B2000814000C1814001C0804100C1814001C08D
:103B3000804101C0804100C1814000C1814001C07D
:103B4000804101C0804100C1814001C0804100C16D
:103B5000814000C1814001C0804100C1814001C05D
:103B6000804101C0804100C1814001C0804100C14D
:103B7000814000C1814001C0804101C0804100C13D
:103B8000814000C1814001C0804100C1814001C02D
:103B9000804101C0804100C1814000C0C101C30318
:103BA00002C2C60607C705C5C404CC0C0DCD0FCF95
:103BB000CE0E0ACACB0BC90908C8D81819D91BDB05
:103BC000DA1A1EDEDF1FDD1D1CDC14D4D515D71755
:103BD00016D6D21213D311D1D010F03031F133F305
:103BE000F23236F6F737F53534F43CFCFD3DFF3F55
:103BF0003EFEFA3A3BFB39F9F83828E8E929EB2B85
:103C00002AEAEE2E2FEF2DEDEC2CE42425E527E714
:103C1000E62622E2E323E12120E0A06061A163A384
:103C2000A26266A6A767A56564A46CACAD6DAF6F14
:103C30006EAEAA6A6BAB69A9A86878B8B979BB7B84
:103C40007ABABE7E7FBF7DBDBC7CB47475B577B7D4
:103C5000B67672B2B373B17170B050909151935304
:103C6000529296565797559594549C5C5D9D5F9FD4
:103C70009E5E5A9A9B5B99595898884849894B8B04
:103C80008A4A4E8E8F4F8D4D4C8C44848545874794
:103C9000468682424383418180400000000000004C
:103CA0000000002F000000000700070000147F1430
:103CB0007F1400242A7F2A1200626408132300362E
:103CC0004955225000000503000000001C2241005D
:103CD000000041221C000014083E08140008083EA1
:103CE0000808000000A0600000080808080800009C
:103CF00060600000002010080402003E5149453E6B
:103D00000000427F40000042615149460021414588
:103D10004B31001814127F10002745454539003CEF
:103D20004A494930000171090503003649494936BD
:103D300000064949291E00003636000000005636AC
:103D40000000000814224100001414141414000090
:103D50004122140800020151090600324959513E1E
:103D6000007C1211127C007F49494936003E4141D6
:103D70004122007F4141221C007F49494941007F87
:103D800009090901003E4149497A007F0808087F76
:103D90000000417F4100002040413F01007F0814A6
:103DA0002241007F40404040007F020C027F007FA4
:103DB0000408107F003E4141413E007F0909090689
:103DC000003E4151215E007F0919294600464949BC
:103DD00049310001017F0101003F4040403F001F89
:103DE0002040201F003F4038403F00631408146308
:103DF00000070870080700615149454300007F41F2
:103E0000410000552A552A55000041417F00000419
:103E10000201020400404040404000000102040052
:103E2000002054545478007F4844443800384444B7
:103E3000442000384444487F003854545418000843
:103E40007E0901020018A4A4A47C007F0804047861
:103E50000000447D4000004080847D00007F1028E9
:103E600044000000417F4000007C04180478007C7E
:103E70000804047800384444443800FC24242418FE
:103E80000018242418FC007C08040408004854543A
:103E9000542000043F444020003C4040207C001C53
:103EA0002040201C003C4030403C00442810284466
:103EB000001CA0A0A07C004464544C4414141414AE
:103EC00014140000000000000000000000000000CA
:103ED0000000000000F80000000000000033300087
:103EE000000000100C06100C06000000000000008E
:103EF000000040C07840C0784000043F04043F0404
:103F00000400007088FC08300000001820FF211E0B
:103F10000000F008F000E018000000211C031E2142
:103F20001E0000F00888700000001E2123241927BD
:103F3000211010160E00000000000000000000001C
:103F40000000000000E01804020000000007182034
:103F5000400000020418E0000000004020180700A4
:103F60000000404080F0804040000202010F01024A
:103F70000200000000F0000000000101011F01012B
:103F80000100000000000000000080B07000000090
:103F9000000000000000000000000001010101011C
:103FA00001010000000000000000003030000000AF
:103FB0000000000000008060180400601806010086
:103FC000000000E010080810E000000F1020201092
:103FD0000F00001010F8000000000020203F2020FB
:103FE0000000007008080888700000302824222192
:103FF0003000003008888848300000182020201148
:104000000E000000C02010F8000000070424243F28
:10401000240000F8088888080800001921202011D1
:104020000E0000E0108888180000000F11202011F9
:104030000E0000380808C83808000000003F0000E3
:1040400000000070880808887000001C22212122CE
:104050001C0000E010080810E000000031222211CE
:104060000F00000000C0C000000000000030300061
:1040700000000000008000000000000080600000E0
:104080000000000080402010080000010204081019
:104090002000404040404040400004040404040428
:1040A00004000008102040800000002010080402D6
:1040B0000100007048080808F000000000303601D8
:1040C0000000C030C828E810E00007182724231497
:1040D0000B000000C038E0000000203C2302022753
:1040E000382008F8888888700000203F20202011A0
:1040F0000E00C030080808083800071820202010DB
:10410000080008F808080810E000203F20202010D0
:104110000F0008F88888E8081000203F202023209E
:10412000180008F88888E8081000203F20000300E5
:104130000000C03008080838000007182020221EA0
:10414000020008F808000008F808203F21010121BA
:104150003F20000808F8080800000020203F202029
:10416000000000000808F8080800C08080807F0078
:10417000000008F888C028180800203F20012638D1
:10418000200008F8080000000000203F2020202028
:10419000300008F8F800F8F80800203F003F003F22
:1041A000200008F830C00008F808203F2000071859
:1041B0003F00E01008080810E0000F102020201039
:1041C0000F0008F808080808F000203F210101014D
:1041D0000000E01008080810E0000F1824243850F0
:1041E0004F0008F8888888887000203F2000030C62
:1041F000302000708808080838000038202121226B
:104200001C00180808F8080818000000203F2000CB
:10421000000008F808000008F808001F20202020EF
:104220001F000878880000C83808000007380E0111
:104230000000F80800F80008F800033C0700073CFD
:104240000300081868808068180820302C03032CAD
:1042500030200838C800C83808000000203F20007F
:10426000000010080808C83808002038262120203F
:104270001800000000FE020202000000007F404023
:104280004000000C30C000000000000000010638B3
:10429000C00000020202FE000000004040407F001B
:1042A0000000000004020202040000000000000000
:1042B00000000000000000000000808080808080FE
:1042C00080800002020400000000000000000000E6
:1042D000000000008080808000000019242222223B
:1042E0003F2008F8008080000000003F11202011CE
:1042F0000E000000008080800000000E11202020B1
:104300001100000000808088F800000E11202010AD
:104310003F200000808080800000001F2222222297
:104320001300008080F0888888180020203F20201B
:1043300000000000808080808000006B9494949343
:10434000600008F8008080800000203F21000020ED
:104350003F2000809898000000000020203F20208F
:104360000000000000809898000000C08080807FDE
:10437000000008F8000080808000203F24022D30DB
:104380002000000808F8000000000020203F202046
:1043900000008080808080808000203F20003F20BF
:1043A000003F8080008080800000203F21000020AE
:1043B0003F200000808080800000001F20202020FF
:1043C0001F00808000808000000080FFA12020115D
:1043D0000E000000008080808000000E112020A0D0
:1043E000FF80808080008080800020203F2120008E
:1043F0000100000080808080800000332424242479
:104400001900008080E0808000000000001F202054
:1044100000008080000000808000001F202020100D
:104420003F20808080000080808000010E300806E0
:10443000010080800080008080800F300C030C30F1
:104440000F0000808000808080000020312E0E311F
:104450002000808080000080808080818E7018061F
:10446000010000808080808080000021302C22218B
:10447000300000000000807C020200000000003FCD
:10448000404000000000FF00000000000000FF00AE
:1044900000000002027C800000000040403F00005D
:1044A00000000006010102020404000000000000F8
:1044B00000000000000080C0C04040C0C08000007C
:1044C000000000F8FEFFFF030000000003FFFFFEF6
:1044D000F800003FFFFFFF800000000080FFFFFFAB
:1044E0001F00000000010307060404060703010083
:1044F00000000000000000008080C0C0000000003C
:104500000000000000010101FFFFFFFF00000000AC
:104510000000000000000000FFFFFFFF000000009F
:104520000000000000040404070707070404040453
:1045300000000000008080C0404040C0C0C080003B
:104540000000000E1F1F1F0800000080E3FFFF7F18
:104550000000000080C0E070381C0E070301E0E09E
:104560006000000707070606060606060607070797
:10457000000000000080C0C04040C0C0C0800000FB
:10458000000000000F0F0F808080C0E1FF7F3F1E02
:10459000000000C0E0E0E0000000000103FFFEFCBE
:1045A0007800000003030706040404060703030160
:1045B0000000000000000000000080C0C0C000003B
:1045C000000000000080C0F0781E0FFFFFFF000019
:1045D000000010181E171310101010FFFFFF10100E
:1045E000100000000000000808080C0F0F0F0C0856
:1045F0000800000000C0C0C0C0C0C0C0C0C0C0C073
:1046000000000000FFFFFF6060202060E0E0C0804D
:10461000000000C0E1E1E1000000000080FFFFFFBA
:104620003E0000000103070604040406070303011B
:104630000000000000008080C0C04040C0C080007A
:10464000000000F0FEFFFF83C04040C0C3C38303EF
:104650000000007FFFFFFF010000000001FFFFFFDF
:104660007E0000000103030706040406070303019C
:1046700000000000C0C0C0C0C0C0C0C0C0C0C0C03A
:104680004000000C0F0F01000000C0F07C1F07016C
:1046900000000000000000E0FCFFFF070000000039
:1046A00000000000000000070707070000000000EE
:1046B000000000000080C0C0404040C0C0808000BA
:1046C0000000001E3F7FFBE0C0C08080C07F7F3FB6
:1046D0000C0000F8FEFE07030101030307FFFEFCC8
:1046E000F0000000010307060404040406030301AC
:1046F000000000000080C0C0404040C0C0800000FA
:10470000000000FEFFFFC7000000000081FFFFFE69
:10471000F80000018383878604040406E3FFFF7F1B
:104720000F00000003070707040406070301000049
:104730000000000000000000000000000000000079
:104740000000000000000000000000000000000069
:104750000000000000000000000000000000000059
:104760000000000000000000000000000000000049
:104A800000000000000000C0E0E0E0E000000000E6
:104A90000000000000000000818181810000000012
:104AA00000000000000000030707070700000000E7
:104AB00000000000000000008080C0C00000000076
:104AC00000000000000000000000000000000000E6
:104AD00000000000000000000000000000000000D6
:104AE00000000000808080800000000000000000C6
:104AF0000000000307070707030000000000000094
:104B000000000000000000008080C0C00000000025
:104B10000000000000000000000000000000000095
:104B20000000000000000000000000000000000085
:104B30000000010101010101010101010101010167
:104B40000101000000000000000000000000000063
:104B500000000000000000008080C0C000000000D5
:104B60000000000000000000000000000000000045
:104B7000000000000000000000FEFE000000000039
:104B8000000000010101010101FFFF01010101011C
:104B90000101000000000000000000000000000013
:104BA00000000000000000008080C0C00000000085
:104BB00000000000D44B000800000020600000004E
:104BC0006C010008344C000860000020F80A000066
:104BD0008801000800000000000000000000000044
:104BE00000000000000000000000000000A24A04D5
:104BF000000000000000000001020304060708098D
:104C0000030000000000000000000100000000019F
:104C1000020304010203040607080902040608004F
:104C20000000000001000000000000000000000083
:044C30000000000080
:0400000508000131BD
:00000001FF
